:020000040800F2
:1000000008090020C5000008F52800085926000846
:1000100000000000000000000000000000000000E0
:10002000000000000000000000000000152C000887
:100030000000000000000000752A0008172C0008CE
:10004000D7000008D7000008D7000008D700000834
:10005000D7000008D7000008D7000008D700000824
:1000600000000000D700000801070008D7000008C2
:10007000D7000008D7000008D7000008D700000804
:10008000D70000080000000000000000D7000008B2
:1000900000000000212C0008D7000008D70000084D
:1000A00000000000D70000080000000089310008AF
:1000B0000348854600F0A2F900480047CD3100080A
:1000C000080900200448804704480047FEE7FEE78F
:1000D000FEE7FEE7FEE7FEE71F2C0008B100000880
:1000E000D2B201E00270401C491EFBD270470022D0
:1000F000F6E710B513460A4604461946FFF7F0FF27
:10010000204610BDF8B502464A40D40F42004B00CD
:1001100052085B089A4202D20246084611464A003B
:1001200023D0C30D4A00DDB2120EAD1A202D35DAF0
:1001300049020126490AF6058A19002C00D05242CC
:1001400020214F1B1146B9402A411018C20D9A4276
:1001500021D0002C17D0012D08DCDA05801AD20F2F
:100160008019D207DBB200F00FF9F8BDDA05801A6A
:10017000012340001B06C01880185A428018CA0F7D
:100180001043490007E04908C2071143DA05801A05
:1001900080194008801800F0EFF8F8BD61000122D6
:1001A000511A001BF7E70122D2075140AAE70122AA
:1001B000D2075040A6E7024670B54A40D30FDB078E
:1001C00040002DD04A002AD0010E140E0002120267
:1001D0000919400A520A8418E50104465443000AEA
:1001E000120A2E045043A4194219200CC543AA1820
:1001F000120C0125AD03521C521912047F3924043C
:1002000000D0521C104301D44000491EC2B20C065B
:10021000C0092018401C4008802A02D003E00020BA
:1002200070BD40084000002900DA0020184370BD6E
:1002300070B502464A40D50F40004A00ED0740081D
:100240005208002814D0002A12D0C40DD30D410248
:100250000120C0055202490A520AE41A091812186C
:100260007D34914201D3641C00E04900002C01DA86
:10027000002070BD0023914201D3891A0343400836
:1002800049000028F7D100290AD0914202D101216A
:10029000C90705E0914201D2012101E00121C943D2
:1002A000E005C018401900F067F870BD0122D207C0
:1002B000002800DB101A002900DB511A814201D806
:1002C00001207047002070470122D207002800DB80
:1002D000101A002900DB511A814201D90120704710
:1002E00000207047C217C10F504010B54018CA0710
:1002F0009623002100F048F810BD10B50022962387
:10030000114600F041F810BDC20F41004002012328
:10031000400ADB05D207090EC0187F2901DA002048
:100320007047962903DC9623591AC84001E0963994
:100330008840002AF4D04042704770B50446002936
:1003400003D000202022012310E0002801D000204B
:10035000C043C046C0460DE02546D5408D4205D37A
:100360000D469540641B1D46954040191546521E8A
:10037000002DF1DC214670BD002904DA401C490043
:1003800001D140084000704770B40024050C05D12D
:100390001024000402D1002921D01124050E01D11E
:1003A00000020834050F01D10001241D850F01D181
:1003B0008000A41C002801DB4000641C002908D038
:1003C00020252E1B0D46F540A14000D001212943D8
:1003D000084301061B1B000ADB1D02D5002070BC70
:1003E0007047DB05181880180029F8DA401C49000E
:1003F000F5D170BC4008400070470000064C012554
:10040000064E05E0E36807CC2B430C3C98471034BC
:10041000B442F7D3FFF750FE083800082838000828
:10042000F0B58BB00920C006069008210591002286
:10043000039200F08CFC4849062008707D20C30020
:100440000493D64E01220292304601F0EDF80A20C4
:1004500000F09CFBD24F8020787040243C70D14843
:10046000009007AA0225304639462B4601F09EF936
:10047000D020787044203870EA48009008AA3046AE
:1004800039462B4601F092F97C7048203870E548D7
:100490000090044609AA304639462B4601F086F9F9
:1004A000039878704C20387000940AAA3046394678
:1004B0002B4601F07BF9059C27490C703046029DC4
:1004C0002A46049B01F0B0F8284600F05FFB06982E
:1004D00021462A4600F03BFC0BB0F0BDF0B583B0DE
:1004E00002A8FF21417001700920C40608250022DE
:1004F0002046294600F02BFC17490D707D20C300D3
:10050000E8480126324601F08FF820462946324657
:1005100000F01DFC794D0121284600F013FC002855
:10052000F9D1082500222046294600F010FCDE48BB
:100530000090DC4802A9094E0223324601F036F948
:100540007778367801222046294600F000FC3002F8
:10055000C01980B203B0F0BD58000020F3020020A3
:10056000F0B585B00126F5026448002729463A46D1
:1005700000F0EDFB04A98E7002964F7028200870E1
:10058000E948032203920A24234601F04DF85B4810
:100590002946324600F0DBFB204600F0F7FA5748C8
:1005A00029463A4600F0D3FB04A9039E8E704F7093
:1005B0000F70DD483246234601F036F84F48294691
:1005C000029A00F0C4FB4D4829463A4600F0BFFBB2
:1005D00004A98F704F703F200870D34832462646DA
:1005E000234601F021F8454C20462946029A00F0A6
:1005F000AEFB204629463A4600F0A9FB04A9039A1F
:100600008A704F7002200870C7483346019601F087
:100610000BF820462946029C224600F098FB3748FA
:1006200029463A4600F093FB04A98F704F700720CB
:100630000870BD48039A334600F0F6FF2F4E30464F
:100640002946224600F083FB304629463A4600F010
:100650007EFB04A98F704F701F200870B248039A68
:10066000019B00F0E1FF30462946224600F06FFB77
:1006700005B0F0BDF0B581B00F4606460124E50295
:100680001E480022294600F062FB3E4369468E70F8
:10069000300A4870380C182202430A70A24803221C
:1006A0000A2300F0C1FF15482946224600F04FFBFF
:1006B000052000F06BFA01B0F0BDC046F0B581B086
:1006C0000F4606460124E5020C480022294600F0A8
:1006D0003EFB3E4369468E70300A4870380C182243
:1006E00002430A70904803220A2300F09DFF03484A
:1006F0002946224600F02BFB01B0F0BD0004004863
:1007000080B5034800F05AF9024800F057F980BD5F
:10071000AC00002068000020EFF3108072B6FEE706
:10072000F0B585B003AF00267E7020203870092018
:10073000C406082520462946324600F008FB7D20E5
:10074000C00000907848794A02230293394601F0AC
:100750002DF80127204629463A4600F0F8FA744A57
:1007600040201070714840780F2101408031517055
:1007700020462946324600F0EAFA6E48009004AA64
:1007800069486B49029B01F011F8204629463A4618
:1007900000F0DDFAFFF7A2FE05B0F0BDF00000208A
:1007A000F002002088130000F0B585B003AF0026EA
:1007B0007E70202038700920C4060825204629466E
:1007C000324600F0C4FA7D20C00000905648574AD7
:1007D00002230293394600F0E9FF0127204629460B
:1007E0003A4600F0B4FA524A402010704F48407820
:1007F0000F210140B031517020462946324600F0A9
:10080000A6FA4C48009004AA47484949029B00F0C8
:10081000CDFF204629463A4600F099FAFFF75EFEE2
:1008200005B0F0BD88130000F0B585B003AF002619
:100830007E70202038700920C406082520462946ED
:10084000324600F084FA7D20C00000903648374AD6
:1008500002230293394600F0A9FF012720462946CA
:100860003A4600F074FA324A402010702F4840781F
:100870000F210140A031517020462946324600F038
:1008800066FA2C48009004AA27482949029B00F0E8
:100890008DFF204629463A4600F059FAFFF71EFE22
:1008A00005B0F0BDF000002088130000F0B585B061
:1008B00003AF00267E70202038700920C40608256A
:1008C00020462946324600F042FA7D20C0000090C2
:1008D0001548164A02230293394600F067FF0127A4
:1008E000204629463A4600F032FA114A402010705C
:1008F0000E4840780F210140903151702046294622
:10090000324600F024FA0B48009004AA0648084931
:10091000029B00F04BFF204629463A4600F017FAAA
:10092000FFF7DCFD05B0F0BDF0000020EE02002076
:10093000F00200208813000010B52121425C01461E
:100940002031022A10D1026813680E24A3431360D9
:1009500013680124A3431360C26B006C23468340D9
:1009600053604C70002002E00422826301200022C8
:100970000A7010BDB0B52121415C022918D1014691
:100980002031026813680E24A34313601368012505
:10099000AB431360C26B036C2C469C405460002434
:1009A0000C704D70416B002900D088472046B0BDC7
:1009B000042181630120B0BD806B7047F0B585B024
:1009C000C16B026C04273C460292944003910E686E
:1009D000214631404B424B4104900568286801464E
:1009E00039404A424A411A4330D001950123022737
:1009F000014639404C424C41029A974037421D46CD
:100A00001946334600D02146049E3446203400293E
:100A10002CD008210840474247411046D3401907CF
:100A200000D53D46002D019B1ED119680E22914331
:100A3000196001210A468240039B5A60B16300227B
:100A400022706170316B00290CD10DE02968890694
:100A500002D42968B943296003994C60049EF16A65
:100A6000002901D03046884705B0F0BD019B1968C8
:100A7000890605D419680A22914319600121617021
:100A80000021217003994F60B16A0029EAD1EBE798
:100A9000F0B585B000282DD0044606462036022049
:100AA0007070A2CC236860680190A0680290E06832
:100AB0000390206904900868104A02402A433A4390
:100AC0001A43019802430298024303980243049890
:100AD00002430A600025E562094820633570094831
:100AE0000C3C08181421FFF728FC8000206401202A
:100AF000707000E00125284605B0F0BD0FC0FFFF73
:100B000000000240F8FFFDBFF0B582B0044620208F
:100B1000255C0220012D2AD026462036012535707D
:100B20007778012F21D1022070700020A063266801
:100B30003768AF433760E76B0097276C0195BD407E
:100B4000009F7D6073606368102B174600D00F46CE
:100B5000B760102B00D01146F1603168E26A002ABC
:100B6000019B06D00E22114309E00021317002B032
:100B7000F0BD0A2211433160316804229143316093
:100B800031681943316002B0F0BD0000B0B50446D1
:100B900000F0E6F80546601C02D08E480078041983
:100BA00000F0DEF8401BA042FAD3B0BDF0B58BB028
:100BB0000390604A904201D0052000E0022000909E
:100BC0000E68002E00D1B2E00120002309930190AD
:100BD000024608910EE03843D860049B0E68304608
:100BE000079AD040099CA41C09941B1D521C002884
:100BF00000D19CE00792501E019F059087403E4027
:100C0000ECD048680325024606952A40551E012D62
:100C1000049315D8069D099CA540039B02969E68E7
:100C2000AE430899CD68A5403543029E9D60C0063D
:100C3000C00F059DA8405D68BD4305435D60049BF2
:100C4000032A039F1DD00698099CA040FD68854398
:100C500008988068A0402843F860022A11D11C201F
:100C6000184033460F268640059AD2089200BA18DB
:100C7000156AB54308990E6986402E4316621E46D2
:100C8000049B069908463A46099FB8401568854373
:100C900008984068840302940C460840B8402843F2
:100CA00010600298800F089998D037465549086817
:100CB000012210430860086810400A900C21194076
:100CC0000F208840059EA6430A9D1C4BF55885437E
:100CD000F6180920C006039B834206D018488342B9
:100CE0000098154B03D1104601E00020124B8840BC
:100CF00028433060186808994D68EA0301D53843E5
:100D000000E0B84318605868AA0301D5384300E0F2
:100D1000B84358609868EA0201D5384300E0B84308
:100D20009860D868AA0200D555E7B84354E70BB0DD
:100D3000F0BDC04600080048000401400800014022
:100D40000004004800690840411E88417047002A9D
:100D500002D018228150704728228150704700002D
:100D6000054800687047C0461A48007802490A687A
:100D7000101808607047C0460005002080B5C548BF
:100D8000016810220A430260032000F005F800F019
:100D900025F8002080BDC046B0B504467D20C000C7
:100DA0000C490978FFF7C9FA0146C2480068FFF705
:100DB000C4FA00F00BFE0125032C09D8002807D146
:100DC0000025E84321462A4600F02AF8024804603C
:100DD0002846B0BD510000205400002082B00948D0
:100DE00001680122114301600168114001910199DC
:100DF000110742680A43426040680840009000982A
:100E000002B0704718100240002805D41F21084086
:100E100001218140014801607047C04600E100E0C7
:100E2000002805D40322034693430C4A9A1806E08F
:100E30000F220240083A03239A43074BD218800737
:100E4000C00E8901C9B28140FF23834010689843D6
:100E5000084310607047C0461CED00E000E400E06D
:100E6000F0B585B004468078C007394B4DD00120DD
:100E7000039001071A1F10680840029006D11068FD
:100E80000843106010680840049004980092019193
:100E9000304E3068C00511D40398070230683843DB
:100EA0003060FFF75DFF05463068384206D1FFF736
:100EB00057FF401B6428F7D9032538E00325280293
:100EC000234B1968014012D06268024091420ED053
:100ED0000398000419681A6802431A601A6882436A
:100EE0001A6008461C4A10401860C80722D11868CA
:100EF000194908406168014319600298002804D12B
:100F0000009A10680199884310602068C10705D0D5
:100F1000196903229143A2680A431A6100258006D9
:100F200005D5186910218843E168014319612846F5
:100F300005B0F0BDFFF714FF0646574F044B186885
:100F40008007D4D4FFF70CFF801BB842F6D9EEE738
:100F50002010024000700040FFFCFFFFF0B581B0A0
:100F6000002850D004464B4A1368012003408B42AE
:100F700009D213680126B3430B4313601268324051
:100F80008A4200D082E0009121688A07584B11D52F
:100F90004A0707D507221202554B1B681343544AD0
:100FA0001360534B1A68F0239A43A3681343504AC3
:100FB00013604F4BC90728D13649086801263040D5
:100FC000009A904205D90868B04308600868C007D5
:100FD0005CD12078400706D50720000219688143BC
:100FE000E0680843186019680C220A404148082A42
:100FF00016D18A02120F404B9C5C3D4B9A6AC90382
:1010000030D43F4835E0012640E061681A1F0229CC
:1010100008D001290BD112689203064636D50AE0A2
:10102000044627E01268920106462FD503E01268B5
:10103000920706462AD518680326B043084318606D
:10104000FFF78EFE0746144D294B18680C2101400E
:10105000606880008142AFD0FFF782FEC01BA842CB
:10106000F2D913E00F210A402449895CFFF765F9A2
:101070001F4B444318680006000F0849085CC44031
:101080000C4804600320FFF787FE0026304601B0BD
:10109000F0BDC0460020024088130000CE37000893
:1010A00004480068124909684905490F024A515C21
:1010B000C840704748000020DE37000810B50C49D2
:1010C0000A680C2313400B48082B10D193021B0F06
:1010D000094CE45C896AD20301D4094805E00F2277
:1010E0001140064A515CFFF728F94443204610BDE1
:1010F0000410024000127A00E6370008F6370008B4
:1011000000093D00F0B587B004460120002C00D155
:10111000D1E104902078C007E84E05941FD0716893
:101120000C200140042913D071680140082902D124
:101130007068C0030CD460680028039000D1C5E03B
:10114000052800D16EE1012800D0BFE001206EE14A
:101150003068800303D56068002800D1B3E02078B0
:1011600080071AD570680007800F07D070680C21BF
:101170000140082971D17068C0036ED430688007BF
:10118000059C03D5E068012800D09CE03068F82178
:1011900088432169C90001433160059C207800071C
:1011A00024D42078400734D42078C00600D4B3E09B
:1011B00005984069411D00D1A2E0012800D0F2E06D
:1011C000706B042101437163706B012101437163F2
:1011D000FFF7C6FD0546706B800700D594E0FFF76A
:1011E000BFFD411B03200229F5D964E1706AE16962
:1011F000002958D0012108437062FFF7B1FD054670
:10120000706A8007CDD4FFF7ABFD401B0228F7D9E9
:1012100022E1012003900107F0690840029006D105
:10122000F0690843F061F069084006900698019162
:10123000A34F3868C00524D40398040238682043BB
:101240003860FFF78DFD05463868204219D1FFF759
:1012500087FD401B6428F7D9FEE03068059CE168F3
:1012600000293CD0012108433060FFF779FD054695
:10127000306880078AD4FFF773FD401B0228F7D936
:10128000EAE005988468002C05D0052C00D19FE089
:10129000012C00D1A0E0306A039988433062306AA3
:1012A000042188439BE0012188437062FFF758FDC9
:1012B0000546706A800700D473E7FFF751FD401BB5
:1012C0000228F6D9C8E0049807B0F0BD0120010457
:1012D00032688A433260810430688843AAE0012181
:1012E00088433060FFF73CFD05463068800700D436
:1012F00053E7FFF735FD411B03200229F5D9DAE05A
:10130000706B042188437063706BF82188430599E2
:101310008969C900014371630598046A002C1ED0D5
:1013200070680C21014008291CD1012C049800D1BF
:10133000C1E00120030471680B40F26A059D6C6AEC
:10134000A34200D0B7E00F231A40EC6AA24200D0BB
:10135000B1E09A041140AA6A914200D0ABE00020AB
:1013600007B0F0BD0120020631680492914331605C
:101370004706FFF7F5FC0546022C0AD1049C3068AD
:10138000384278D0FFF7ECFC411B03200229F6D944
:1013900091E030683842E2D0FFF7E2FC411B0320C5
:1013A0000229F6D987E0706B042101437163706BE9
:1013B000012188437063FFF7D3FC0546706B8007FB
:1013C000AAD5FFF7CDFC411B03200229F6D972E014
:1013D000306A042101433162306A03990843306264
:1013E000384FFFF7BDFC0546002C0ED0306A800751
:1013F0000ED4FFF7B5FC401BB842F7D92CE0FFF73D
:10140000AFFC411B0320B94255D8306A8007F6D49F
:1014100002980028059C00D0C6E6F069019988432F
:10142000F061C1E60120810432680A4332600104A0
:1014300030680843306001204704FFF791FC0546FF
:10144000039800280BD03068384200D087E6FFF7B9
:1014500087FC401B6428F6D9032007B0F0BD059C2B
:101460003068384200D17AE6FFF77AFC411B03204E
:101470006429F5D91FE0F06A0F218843059AD16AE3
:101480000143F1623D20000471688143906A084382
:10149000516A01437160306820433060FFF760FC9F
:1014A00004463068384200D059E7FFF759FC011B69
:1014B00003200229F5D907B0F0BDC0460010024054
:1014C0000070004088130000F0B585B000280CD0F3
:1014D000044605465C3541208600606A002807D036
:1014E000002020612046143007E0012005B0F0BD47
:1014F0006068B04203D020461C3000210160002704
:10150000A7626878002804D100202870204600F0E7
:1015100057F8022004950190687020680168402205
:10152000914303900160E1689F4A012591422A4658
:1015300000D33A461203ED020D430F273802029002
:10154000854201D00025A5626568A7683540212342
:101550009B023B405B192569019805401D4360696A
:10156000012318402843FC36A7693E400643E06942
:10157000382505403543206A802606402E4358030F
:10158000A56A05403543039E3560380C04250540A7
:10159000029801400A432A43606A10210140114326
:1015A000606B082202400A437260D802F1698143ED
:1015B000F1610020206604994B7005B0F0BDC04673
:1015C00010B586B00021059104910391029101911B
:1015D0000068134A904201D006B010BD01200203FA
:1015E000104B5C6814435C605C6814400094009A83
:1015F00040041A6802431A601A680240009205917A
:1016000003200490039102200290E0200190092021
:10161000C006009901A9FFF7C9FA06B010BDC0467F
:101620000030014014100240F0B587B004465C2041
:10163000205C012802D1022007B0F0BD15460591BB
:1016400004932646443601273776FFF789FB03903B
:10165000707E012853D1059A002A384600D19DE0BA
:10166000002D384600D199E0029703200090707653
:1016700000202066E587A587A26320643080E064AF
:101680002065019070800120C103A2688A4208D1C0
:1016900021680A6840239A430A6080030A6802436B
:1016A0000A60206801684906049F03D4016840224B
:1016B0000A43026061684A424A416B1E59425941DD
:1016C0001143E268C04B9A421BD30029039D07D007
:1016D000A16B0A88C260881CA063E08F401EE0876F
:1016E000E08F00282CD0206881688907F0D4FFF7AC
:1016F00037FB791CF4D0401BB842F1D31BE0022029
:101700004CE00029039D08D0059909780173A06B6E
:10171000401CA063E08F401EE087E08F00280FD0C0
:1017200020688168890709D4FFF71AFB791CF4D077
:10173000401BB842F1D3029F00982FE0A16BE4E771
:1017400003200590C10220463A462B4601F094F949
:1017500000280FD1204639462A4601F0FFF900281B
:1017600008D10598410220463A462B4601F084F9FB
:10177000002804D0206E2021084320662166A0683E
:10178000002807D1019806902068C16806918068FA
:1017900006900698206E411E8841029F00223276F4
:1017A000777607B0F0BDC04601070000F0B585B000
:1017B00004465C20205C012802D1022005B0F0BD67
:1017C0001D46029203912746443701263E76FFF7D5
:1017D000C7FA32460646797E01297DD10398002852
:1017E000104600D1E8E002980028104600D1E3E05E
:1017F000002D104600D1DFE00192787E042801D050
:1018000005207876002323667D80E587E1686E4AAF
:10181000012000919142024600D31A460496160315
:101820000103206842688A4391194160029921644A
:101830003D800399A163E3642365A5870168490698
:1018400003D4016840220A4302600A9E61684A424A
:101850004A41691E4B424B41134300995A4A9142F7
:1018600048D3002B07D0A16B0A88C260881CA063F4
:10187000E08F401EE0870125E08F002802D17888A4
:10188000002877D02068816889070DD5E18F00296D
:101890000AD0012D08D1A16B0A88C260891CA163FE
:1018A000E18F491EE18700258168C9070BD079883F
:1018B000002908D0216CC0680880881C20647888C2
:1018C000401E78800125FFF74BFA711CD4D0049993
:1018D000401AB042D0D34BE00192412082006368AD
:1018E0000220934267D1A268002A64D10429019A98
:1018F00062D173E7002B08D0039909780173A06BBC
:10190000401CA063E08F401EE0870125E08F002887
:1019100002D1788800282DD02068816889070ED5EB
:10192000E18F00290BD0012D09D1A16B097801733A
:10193000A06B401CA063E08F401EE087002520685C
:101940008168C9070CD07988002909D0007B216CF7
:101950000870206C401C20647888401E7880012527
:10196000FFF7FEF9711CD1D00499401AB042CDD3D3
:10197000032020E003200390C10220463246049D4C
:101980002B4601F079F800280FD1204631462A462F
:1019900001F0E4F8002808D10398410220463246BD
:1019A0002B4601F069F800280BD0206E2021084357
:1019B000206621660120019A002139767A7605B0E9
:1019C000F0BD0020F7E7C04601070000401E010EF1
:1019D00001D0012070470749074A50600748036853
:1019E0000B400321890759180160002090600721EE
:1019F00011607047FFFFFF0010E000E020ED00E005
:101A000070477047B0B53C22825C012A01D10220A8
:101A1000B0BD02463C3202235370012313700068AC
:101A200044687025AC430D682543846845609D0774
:101A3000A84205D06B4DA84202D06B4DA84204D1FC
:101A40008025AC43496821438160002010705370A9
:101A5000B0BDC04670B500281DD0044605463C35D3
:101A60006878002804D100202870204600F05AF839
:101A70000220687021680E6801208307994205D012
:101A8000584A914202D0584A914206D17022964358
:101A9000A268324302E0012070BD32461E4EB142C0
:101AA00008DC99420FD0504B99420CD01C4B994204
:101AB00009D02EE04B4B994205D0184B994202D0E9
:101AC000344B994225D103231B029A4323691343C4
:101AD00080229343A2691A430A60E268CA6262687C
:101AE0008A62404A914205D00C4A914202D0294A6A
:101AF000914201D162690A634861A872A870E870D6
:101B000028716871A871E871287268726870002085
:101B100070BD1346DCE7C046FF2B01400048014082
:101B20000020004010B584B000681A49884210D0E7
:101B30002D49884223D001218A0790421DD11648A1
:101B400002680A430260006808400390039804B0EA
:101B500010BD012040041049091F0A6802430A60B1
:101B600009680140019101981524002120460A4688
:101B7000FFF756F92046FFF747F904B010BD0648B5
:101B8000016802221143016000681040029002982F
:101B900004B010BD004401401C1002403D21415CD6
:101BA000012918D101463D3102220A700068C2683D
:101BB00001210A43C2608A07904205D0094A904237
:101BC00002D0094A904208D1826807231340062BAD
:101BD00003D1002070470120704702680A43026069
:101BE00000207047002C01400004004010B502683E
:101BF000D36801218B43D360136A074C234206D17B
:101C0000136A064C234202D113688B4313603D22B2
:101C10008154002010BDC046111100004404000092
:101C2000F0B53C22825C012A01D10220F0BD0246BF
:101C30003C3202235370012313704B4F3C46773CD8
:101C40000568A8682040A8600E6800244F2E1DDC9F
:101C50001F2E33DD202E35D0302E33D0402E7FD1B5
:101C6000286A2E6A0127BE432E62AE69F027BE4362
:101C7000CF683F013743AF610A26B043496801434B
:101C80002962A86847210143302065E06F2E22DDDC
:101C9000580386423ED018038642204661D0702EFB
:101CA0005ED1A86838404E688F68C968374309021A
:101CB00039430143A960A868772137E0002E01D09D
:101CC000102E4DD1A8687021884306430720304369
:101CD000A860204645E0502E2AD0602E40D110202A
:101CE000C0432E6A06402E620F263603AF69B74303
:101CF000CE6836033E432F6AAE61A026B7434968DB
:101D0000090139432962A96867260E430640AE607F
:101D1000204626E0A86838404E688F68C968374377
:101D2000090239430143A9609803A968014314E0FB
:101D3000286A2E6A9E432E62AE69F027BE43CF68A2
:101D40003F013743AF610A26B04349680143296226
:101D5000A8685721014320208143A960204600E064
:101D6000184614705370F0BDFF00FFFF7047B0B508
:101D700004468020C54320680169890716D5C168DB
:101D8000890713D529467E310161012121778069B8
:101D9000800703D02046FFF7E9FF05E0204600F06A
:101DA0008AF8204600F088F8002020772068016932
:101DB000490717D5C168490714D529467C31016107
:101DC0000221217780698005800F03D02046FFF72C
:101DD000CDFF05E0204600F06EF8204600F06CF8DC
:101DE0000020207720680169090716D5C168090716
:101DF00013D529467831016104212177C069800714
:101E000003D02046FFF7B2FF05E0204600F053F86C
:101E1000204600F051F80020207720680169C906AB
:101E200017D5C168C90614D529467031016108214A
:101E30002177C0698005800F03D02046FFF796FF09
:101E400005E0204600F037F8204600F035F8002085
:101E5000207720680169C90708D0C168C90705D083
:101E600029467F310161204600F027F8206801698A
:101E7000090606D5C168090603D505612046FFF7A6
:101E8000BFFD20680169490608D5C168490605D526
:101E9000294640310161204600F010F820680169B0
:101EA000890607D5C168890604D5603505612046D5
:101EB000FFF7A7FDB0BD7047704770477047704788
:101EC0007047F0B581B00446806FE56F216889687E
:101ED000090629D5212827D1EFF31080012686F3A2
:101EE000108821688A688027BA438A6080F3108846
:101EF000E06E00280BD0FEF71FFD002807D0E06E33
:101F0000FEF75AFD202802D11020E0512EE0EFF319
:101F1000108086F3108821680A68C0239A430A60FB
:101F200080F310882020A06720688168002049067F
:101F300048D5222D46D1EFF31080012585F3108876
:101F400021688A6840239A438A6080F31088206F52
:101F500000280ED0FEF7F0FC00280AD0206FFEF714
:101F60002BFD202805D1802010212150032001B015
:101F7000F0BDEFF3108085F3108809214901226834
:101F800013688B43136080F31088EFF3108085F3A0
:101F9000108821688A68AA438A6080F31088206EBE
:101FA00001280AD1EFF3108085F3108821680A68B0
:101FB00010239A430A6080F310882020E0670020F5
:101FC0006066206601B0F0BD70470000F0B589B0D2
:101FD00005460268D66911682020079105900140E6
:101FE000484248410127FB021C462F3408963440E2
:101FF000203C661EB4410443946863D0029104926D
:10200000039706952946583118460F30089F074216
:10201000079D08D01A46DC482840012326461E406A
:10202000301800D08EE0102228461040464246412B
:1020300038461040474247410698006E0128039DEC
:10204000284600D138460028284600D130460028CE
:10205000069F3FD0012290050440664266410898E1
:10206000C002284600D53046002800D1E4E0802098
:10207000079908404342434108980006284600D586
:102080001846002800D173E14023079818404442C5
:1020900044410898400600D52546002D00D06CE14B
:1020A000EFF3108082F3108839680A689A430A6057
:1020B00080F310880020B8660598B867384600F0AD
:1020C000C9FA5AE1696E002900D156E128468847CD
:1020D00009B0F0BD049802628068400600D5B3E004
:1020E00048880B4609885B88002B00D145E1081A17
:1020F000010400D141E1EFF31083012181F3108845
:10210000092464013D682E68A6432E6083F310887D
:10211000EFF3108381F310883C68A5688D43A560B8
:1021200083F31088059BFB6700237B663B66EFF318
:10213000108381F3108839680C6894430C6083F332
:102140001088CAE0019218022A46284044424441BD
:10215000F807039D284600D02046002804D10498A3
:102160000362886A1843886274427441B80728463B
:1021700000D52046002806D10220049C2062886AEF
:10218000042404438C6274427441780728460CD5B9
:10219000204600280BD10420049C2062886A022477
:1021A00004438C6238070DD503E00028F3D03807CC
:1021B00008D50298064305D00820049C20628C6A4A
:1021C00004438C62980602405442544101980742ED
:1021D00000D02546002D07930498029A07D1019B51
:1021E0000362886A0B460599084319469862886A13
:1021F0000028069D00D1C0E00C46059E37405342A2
:102200005341002F00D003930398002804D1696E36
:10221000002901D028468847A06A28210140286863
:1022200082684020024051185DD12846FFF7CCFE5D
:102230000020A06209B0F0BD10050499086238467C
:10224000FFF73EFE09B0F0BD0E46386F01684968E1
:102250008BB2002B00D190E03488A34200D38CE0F5
:102260003346718031468069202833D0EFF31081E6
:10227000012080F31088464B20333C6825681D40C0
:10228000256081F31088EFF3108180F310883B689C
:102290009C6884439C6081F31088EFF3108180F385
:1022A00010883B689C684025AC439C6081F3108893
:1022B0000599F96700213966EFF3108180F31088E2
:1022C000386803689343036081F31088386FFEF722
:1022D00033FB314648880988081A81B23846FFF72F
:1022E000EEFD09B0F0BDEFF31081079F87F3108872
:1022F000092252012B681C6894431C6081F31088EA
:10230000EFF3108187F310882A689368BB439360CA
:1023100081F31088296E01290BD1EFF31081079A00
:1023200082F310882A6813681024A343136081F392
:102330001088EE6700212966696629688968490660
:102340001DD5EFF31081079A82F310882A689368ED
:102350008343936081F31088286F00280FD00B49C6
:102360004163FEF707FB002807D0286F416BAEE6FC
:10237000B96E002901D03846A9E609B0F0BD28465B
:10238000FFF722FE09B0F0BD200100040B2D00086C
:10239000DFFEFFFFF0B583B0002842D004460746B9
:1023A0007437806F002804D100203870204600F078
:1023B00053F82420A067206801680125A943016023
:1023C000204600F081FD012841D0606A002802D03B
:1023D000204600F031FC0920C00221684A6882438F
:1023E0004A6088682A229043886008680126304342
:1023F00008600025FD60FEF7B3FC03462068006816
:10240000000710D51348009071050022204602965F
:102410001E4600F041FE3346029E002803D00325ED
:1024200015E0012513E02068006840070AD5094837
:102430000090B1050022204600F02EFE002801D0B9
:10244000032504E02020A067E0673D70256628464C
:1024500003B0F0BDFFFFFF01F0B587B004460026D2
:102460000696059604960396029600682B498842C4
:1024700001D007B0F0BDB348416801220692930332
:102480001943416041681940019101995104026862
:102490000A430260006808400190049602200390FD
:1024A000032005904002029001980920C00602A96D
:1024B000FEF77CFB1A4D80271A48143041C52E6068
:1024C0006F60AE60EE602E616E61083D2846FEF7DB
:1024D000DFFA002801D0FEF71FF96C622567124D64
:1024E000102010492960291DC1C12E616E61AE61A5
:1024F000EE612846FEF7CCFA002801D0FEF70CF971
:102500006C62E5661B24002120460A46FEF788FC23
:102510002046FEF779FC07B0F0BDC0460038014008
:10252000680000201C000240AC00002070B5C36FA2
:102530000225202B10D1012300292BD0002A29D0DD
:102540000124230386689E4208D1CB0706D0036985
:10255000002B03D1204670BD284670BD7423C35C98
:10256000012B2B4616D003467433002505661C70DC
:1025700003685B681B020AD5EFF3108384F31088AD
:10258000A40605682E6826432E6083F3108800F0A9
:1025900033FD0346184670BD70477047F0B581B0F3
:1025A00013460446826F0220202A10D101250029FB
:1025B0000ED0002B0CD001263203A56895420AD11B
:1025C000CA0708D02269002A05D1354600E0054631
:1025D000284601B0F0BD274674373A78012A0546EF
:1025E000F6D02046503043800025FD60E1643E7007
:1025F00003802120A067E06E002813D0144A826275
:10260000124AC262104A0263456322682832FEF70A
:102610007BFA002806D01020F8603D702020A067CB
:102620003546D5E73D70206840210162EFF3108008
:10263000012181F3108821688A68802313438B600D
:1026400080F31088C4E7C046212D0008BF2E000883
:10265000772E000870477047FEE7000010B582B083
:102660003848016801221143016000681040019060
:1026700001980A24002120460A46FEF7D1FB204695
:10268000FEF7C2FB02B010BDF0B587B0002406947F
:1026900005940494039402940125680429490A6866
:1026A00002430A600A68024001920198A8040A687D
:1026B00002430A6009680140019101980920C60699
:1026C0000827304639462A46FEF741FB1E481F4977
:1026D0002A46FEF73CFB1E491B482246FEF737FB05
:1026E00003200090059004950395029702AF3046B1
:1026F0003946FEF75BFA0495039402951248394671
:10270000FEF754FA059404950395124802900E487A
:1027100006463946FEF74AFA009805900495039557
:10272000E802029030463946FEF740FA05940494D8
:1027300003950748029030463946FEF737FA07B04E
:10274000F0BDC0461410024000040048040C000014
:1027500010C000000404000070B50F4800210722DB
:10276000016241628162C2620163416338230124D4
:102770000A4D12024126B60060C0FC36016042607C
:1027800008380246103252C2C361FEF79DFE00288F
:1027900001D0FDF7C1FF70BDF00000200030014006
:1027A00010B50A4800210A4A7D23DB002D242401AC
:1027B00014C0016043608160C16001610838FFF7A7
:1027C00049F9002801D0FDF7A7FF10BD54010020F2
:1027D00000440140B0B586B0164800248461E1434E
:1027E0000125AA0714C00460416084600594049424
:1027F00003940294019400940838FFF72BF9002801
:1028000001D0FDF789FF280302900A4802A9FFF7CB
:1028100007FA002801D0FDF77FFF019400940548D6
:102820006946FFF7EFF8002801D0FDF775FF06B005
:10283000B0BDC0469C01002010B586B016480024EB
:1028400084611649164A14C004604160846005948E
:10285000049403940294019400940838FFF7FAF862
:10286000002801D0FDF758FF0120000302900A481C
:1028700002A9FFF7D5F9002801D0FDF74DFF01941B
:10288000009405486946FFF7BDF8002801D0FDF720
:1028900043FF06B010BDC046E4010020FFFF00006A
:1028A0000004004010B53C4C00200C210F4A20626F
:1028B0006062E1235B020CC420606060A060E160A4
:1028C00020616061083C2046FFF764FD002801D0CC
:1028D000FDF722FF2068016810220A4302600120F0
:1028E000420203492046FFF721FE10BD0038014097
:1028F000F3020020FEE70000B0B51D4D2878002847
:1029000002D0FDF751FF01E0FDF78EFF194C20804A
:1029100019490A78002A02D00020087023E01749DC
:102920000A88811A00D2111A1548018088B2154907
:102930000988884217D928781349C870012801D01E
:10294000134800E011480122027012480278124830
:10295000FFF724FE11480021017011480170114851
:102960000088FDF787FE208804490880B0BDC04676
:102970005A000020C00200205E000020BE0200209D
:10298000640000204C0000201E000020BC0200203B
:10299000BD020020500000202C020020EC0200208C
:1029A000B602002060000020F0B583B0FDF7A5FC62
:1029B00004462F4E70603088FDF79FFC2146FDF7DE
:1029C000F2FB0446B08CFDF798FC01462046FDF76B
:1029D0002FFC0446B060F7683946FDF793FB316978
:1029E0000091FDF78FFB0146F069FDF7E4FB05461A
:1029F000B0692146FDF7DFFB2946FDF783FB05465D
:102A00003846029739463746FDF77CFB014601946C
:102A10002046FDF7C8FB0099FDF774FB0146306ABC
:102A2000FDF7C9FB2946FDF76DFB0546B48A204634
:102A3000FDF763FC064628463146FDF745FC0028B5
:102A400001D035460BE00120C00768403146FDF754
:102A50002DFC002803D16042FDF744FC0546019897
:102A6000F860029838612846FDF74EFC03B0F0BDCF
:102A7000C402002070470000F0B589B01E4614461D
:102A80000F46029007A800250570FEF769F9301A75
:102A900006940419FEF764F9029A04905C480068F1
:102AA00023214143080D059460430890106803906A
:102AB0008068384226D010465C30019003E01068F0
:102AC000806838421CD003267002874204D10398E4
:102AD000007B07A9087007980698401CEFD01446A1
:102AE000FEF73EF90499401A059988420CD20898DD
:102AF0000899491E089100282246E0D10590DEE79A
:102B00002E4628E02E4626E0234620684168E02233
:102B1000914341604121890062688A420CD19968E1
:102B20000122D3039942234602D09202914203D15B
:102B3000016840229143016001214A039B6A93424C
:102B400005D10368934303600368134303600020C7
:102B5000019A10705170304609B0F0BDF0B583B0E5
:102B600016460D460446FEF7FBF8301A4719FEF7E5
:102B7000F7F80646264800684001000D78430290A9
:102B80002068806800210191000602D4019803B0FA
:102B9000F0BD20465C30009003E0206880680006AD
:102BA000F4D5681CF9D0FEF7DBF8801BB84207D2D9
:102BB00002980299491E02910028EED10746ECE7DF
:102BC00020684168E02291434160412189006268A8
:102BD0008A420BD1A1680122D303994202D092020A
:102BE000914203D1016840229143016001214A03CF
:102BF000A36A934205D103689343036003681343B8
:102C000003600020009A10705170032003B0F0BDE3
:102C100048000020704780B5FEF7A6F880BD7047D9
:102C200080B50348012101700248FFF7A0F880BD7C
:102C3000ED02002054010020B0B5416ACA070CD152
:102C40008A0714D44A071CD40A0724D4CA062CD4F1
:102C50008A0634D44A063CD44CE00122520403686C
:102C60005C689443826A22435A608A07EAD501224B
:102C7000120403685C689443C26A22435A604A079C
:102C8000E2D50122920403685C689443026B2243FC
:102C90005A600A07DAD50122D20303685C689443BC
:102CA000426B22435A60CA06D2D50122120303683E
:102CB0009C689443826B22439A608A06CAD501229B
:102CC000520303689C689443C26B22439A604A068D
:102CD00010D501221305026854689C43056C2C43EF
:102CE00054609D4206D103235B0554689C43436CAA
:102CF00023435360090607D50121C90402685368BC
:102D00008B43806C18435060B0BD80B5406A01466B
:102D1000523100220A8152214252FFF755F980BDFB
:102D2000F0B581B0406A816FC36F024652320468C9
:102D3000A468240611D521290FD100211180EFF3B9
:102D40001081012484F3108804682568C026B543E7
:102D5000256081F310882021816701468031046855
:102D6000A46864062CD5222B2AD100231381EFF30B
:102D70001084012282F3108809256D0106683768E6
:102D8000AF43376084F31088EFF3108482F3108828
:102D90000568AE689643AE6084F31088046E012C1B
:102DA0000AD1EFF3108482F31088026815681026A8
:102DB000B543156084F310882022C267436603661A
:102DC0000A68102313430B60FFF7FEF801B0F0BD53
:102DD00070B50146406A024658328969202932D0CE
:102DE00000215180EFF31083012181F310880C0240
:102DF00005682E68A6432E6083F31088EFF31083D6
:102E000081F310880468A5688D43A56083F310885A
:102E1000EFF3108381F310880468A5684026B5435A
:102E2000A56083F310882023C367036E012B0AD1AA
:102E3000EFF3108381F3108801680C681025AC4310
:102E40000C6083F31088016E012903D11188FFF70C
:102E500036F870BDFFF7A0FB70BD80B5406A016E0B
:102E6000012905D15821415A4908FFF728F880BDAA
:102E7000FFF793FB80BDB0B50146406A8969202900
:102E800002D1FFF7E7FBB0BD522100224252EFF31F
:102E90001081012282F3108803689C688025AC436E
:102EA0009C6081F31088EFF3108182F31088006832
:102EB000026840231343036081F31088B0BD80B5DE
:102EC000406AFFF7C8FB80BD70B504460068016822
:102ED000414A0A40A16823690B4365691D43E169C2
:102EE0000D43154305600322120343689343E268D0
:102EF0001A434260A269236A13430B2212028568B7
:102F000095431D438560354800688007000F34A253
:102F100013580125EA033648914211D1082B21D8D4
:102F20000026C0467B441B795B009F44041B221B88
:102F3000201B1B1B3100FEF7B3F800281BD12AE031
:102F4000082B2AD80026C0467B441B795B009F448F
:102F500004242B24292424243900FEF7A1F8002876
:102F600024D132E000200126002804D113E0FEF72E
:102F7000A5F800280FD0400061684A081018FDF736
:102F8000DCF91C49014021D00007400F084315E03F
:102F900010460028EFD1354618E000200126002811
:102FA00004D112E0FEF78AF800280ED061684A08C2
:102FB0001018FDF7C2F980B2102807D32168C86045
:102FC000354603E010460028F0D135460020606603
:102FD000A066284670BDC046F369FFFF301002406E
:102FE00000000000040000000800000002000000D3
:102FF00000127A00F0FF0000F0B581B013460546DC
:1030000058202A522E4658360024B4626965222080
:10301000E867286F002814D00A461D4F1D498162B9
:10302000C7621A490163446329682431FDF76CFDC6
:10303000002806D01020B06234772020E8670124F1
:1030400021E03477EFF31081012080F31088020231
:103050002B681E6816431E6081F31088EFF3108101
:1030600080F310882A6893680343936081F3108883
:10307000EFF3108180F3108828688268402313439F
:10308000836081F31088204601B0F0BD212D000837
:103090005B2E0008D12D0008F0B585B004930F46D3
:1030A00004460068C0690840401A4142414100207E
:1030B000914245D1164602902046743001900A9DF7
:1030C00001200090C002039007E02068C0693840EA
:1030D000C01B41424141B14231D1681CF5D0FDF7DE
:1030E0003FFE002D2ED00499401AA8422AD820680D
:1030F00001684907E9D5C169039A1142E5D00399EE
:103100000162EFF31080009D85F310880D214901C5
:10311000226813688B43136080F31088EFF31080EC
:1031200085F3108821688A68AA438A6080F3108832
:103130002020A067E06701990C460C341DE002983E
:1031400005B0F0BDEFF31080009D85F310880D21D0
:103150004901226813688B43136080F31088EFF3F2
:10316000108085F3108821688A68AA438A6080F3FA
:1031700010882020A0677C3401990020087020204E
:103180002060032005B0F0BD80B50C480068C1691F
:10319000C9060ED5102101620848FEF792FE0848C4
:1031A000012101704802074909684968401A064927
:1031B00008600248FEF70AFF80BDC0462C020020CE
:1031C000F202002068000020F802002098B0FDF70D
:1031D000D5FD0CAE30213046FCF789FF00240B945E
:1031E0000A940994089417940520C0041690159425
:1031F000022514951020109001270F970C95079425
:103200000694059404943046FDF77CFF002803D013
:10321000EFF3108072B6FEE70A9409950720089034
:10322000B8020B9008A83946FDF798FE002803D095
:10323000EFF3108072B6FEE73D46039406970497BD
:1032400004A8FDF70DFE002803D0EFF3108072B63E
:10325000FEE7FFF719FAFFF77FFAFFF7BBFAFFF770
:10326000EBFAFFF7FBF9FFF71DFBFFF799FAFDF704
:10327000D7F82846FDF78AFCFDF772F92846FDF7D6
:1032800085FC554B039C1C805448554904229A8464
:1032900028225C609C60DC601C615A619961D86185
:1032A0001862A9034F4E304602912246FDF74FFDAA
:1032B000E903304601912A46FDF749FD20462146A3
:1032C000FDF7FCF929044848FDF7F8F94749484853
:1032D0000880484E484F06E04849088080B24008C0
:1032E0000021FDF7EBF93078002800D1C2E02C4630
:1032F0007E783D78552D40D1AA2E3ED1B87805284C
:103300003BD8810001A25258014697462533000858
:10331000273300083D3300084534000859330008BE
:10332000753300080021F34A1170801E032824D849
:10333000784400794000874401850F1D3879F97879
:1033400009020818FCF7CEFFF049FCF771FFEA49C3
:103350008861EF2D13D082E03879F97809020818D6
:10336000FCF7C0FFE949FCF763FFE3490862EF2D72
:1033700005D074E0F878E0498884EF2D6FD1EF2E06
:103380006DD1E4480068401E0399E14D09D02A78C8
:1033900000231946FB5C9A18491CCBB29842F9D815
:1033A0002A70DD4A1170385C297881422946254609
:1033B000D54E43D13879082857D8400078448088C2
:1033C000400087441D00D000DD00E500ED000A014B
:1033D0002F0124014201C046C402002077CC2B32C9
:1033E000CDCC4C3E00040048FF7F0000B40200201A
:1033F000FFFF0000F2020020FE020020600000201B
:10340000B878062800D14DE105282ED1C3480078B0
:10341000002800D158E1B879797909020818C04923
:10342000088080B2B6490988884200D853E1BF4875
:103430000278BF48C049FFF7B1F816E000203070AD
:10344000087012E03879F97809020818FCF74AFF89
:10345000AE49FCF7EDFEA849C861EF2D8FD0039867
:10346000A94E3070AA49087025466A02B04839460C
:10347000FFF75CF8B5480078002800D133E7FFF784
:103480003BFAB4480078002802D0FDF78DF901E03E
:10349000FDF7CAF9C0490880A3490978002906D078
:1034A000AC480078002813D0FDF77EF912E0BD4942
:1034B0000978002900D116E7BB4908800020B949E6
:1034C0000870A4480078002832D0FDF76DF931E08B
:1034D000FDF7AAF9B04908809A490978022917D05E
:1034E0000020012921D1904908708D480088854924
:1034F0004118814CE182FCF700FF0146A8480068B2
:10350000FCF759FEFCF700FFA44908802080EAE69A
:10351000A2490880784908800020834A10708048BA
:103520000088784A8018C882DDE67F490870DAE6AC
:10353000FDF77AF99849088079490988FFF734FA44
:103540009A4908800299491E89B2884200D9401CD4
:103550007349098841188AB26748C08A824200D9F3
:10356000BAE60846B8E6FDF7DBF8894908808149E4
:1035700008708849C870000A804A107088708BE013
:10358000FDF794F9804908807A4908707F4B50E034
:10359000FDF74AF97A49088076490870794B48E086
:1035A000564C204602992A46FDF7D1FB2046019948
:1035B0002A46FDF7CCFB102120462A46FDF7C7FB23
:1035C0005648057000200146FDF778F85748027804
:1035D00057486649FEF7E2FF47E700263046314686
:1035E000FDF748F8454C204602993246FDF7AFFBFF
:1035F0004A480670102120463246434EFDF7A7FB8D
:103600004A4802784A485849FEF7C8FF2DE7B8797A
:103610004C490870002835D04B48FEF7BFFA4B489C
:10362000057035E0FDF7C0F8514908805149087030
:10363000514BD870000A5149087098703B48027885
:103640003B481946FEF7AAFF0FE7B87941490870D1
:103650004149C8704149C87041490978012904D1DC
:10366000012802D13148027807E030490A783D4903
:103670000978012923D1002821D12D483749FEF7A7
:103680008DFFF2E60020314908702F48FEF7AEFAB0
:103690002C4800782E49C870244802782448FEF748
:1036A0007DFFE2E6B87979790902081814490880A3
:1036B0001E4802781E482249FEF770FFD5E61C48D6
:1036C0002549FEF76BFFD0E61848027818481B49D9
:1036D000FEF764FFC9E613490D7013490D704008E9
:1036E0000021FCF7C7FF1148027811481149FEF785
:1036F00055FFBAE662000020C40200200004004822
:10370000B402002099190000F202002000007A445F
:1037100066000020F8020020B002002059000020BE
:10372000600000205E000020B70200205000002052
:103730002C0200202D000020280000202300002063
:1037400032000020B602002054010020EC020020CC
:10375000370000205A0000203C0000201E000020FE
:10376000BC020020BD02002014000020190000202F
:10377000BA020020050500200A00002004050020F0
:10378000B802002005000020FC0200200F000020ED
:103790005C00002000000020C00200204E0000203D
:1037A00044000020ED020020BE020020B2020020F2
:1037B00002E008C8121F08C1002AFAD170477047FA
:1037C000002001E001C1121F002AFBD17047000058
:1037D00000000000000001020304060708090000C1
:1037E00000000102030402030405060708090A0B8E
:1037F0000C0D0E0F10100102030405060708090A3C
:103800000B0C0D0E0F1000002838000800000020DF
:1038100058000000B0370008803800085800002029
:10382000B0080000C0370008EF010000EFEF030010
:1038300000EFEF060000EFEF020000EFEF050000E1
:10384000EFEF040100EFEFFF0000EFEF0005FFEFE7
:10385000EF000501EFEF000500EFEF000600EFEFCE
:10386000070000EFEF080000EF00000017D9F64056
:1038700000127A00E80301000501000004000000C6
:04000005080000B13E
:00000001FF
